:020000040800F2
:1000000000000220F5020008FD02000801030008BC
:100010007503000879030008C10300080000000010
:1000200000000000000000000000000009040008BB
:100030000D04000800000000110400082904000855
:1000400025040008250400082504000825040008EC
:1000500025040008250400082504000825040008DC
:1000600025040008250400082504000825040008CC
:1000700025040008250400082504000825040008BC
:1000800025040008250400082504000825040008AC
:10009000250400082504000825040008250400089C
:1000A000250400082504000825040008250400088C
:1000B000250400082504000825040008250400087C
:1000C000250400082504000825040008250400086C
:1000D0002504000825040008250400081D2A00083E
:1000E000250400082504000825040008250400084C
:1000F000250400082504000825040008250400083C
:10010000250400082504000825040008250400082B
:10011000250400082504000825040008250400081B
:10012000250400082504000825040008250400080B
:10013000250400080000000000000000250400085D
:1001400025040008250400082504000825040008EB
:1001500025040008250400082504000825040008DB
:1001600025040008250400082504000825040008CB
:1001700025040008250400082504000800000000EC
:10018000000000002504000800000000000000003E
:1001900025040008000000000000000025040008FD
:1001A000000000000000000000000000250400081E
:1001B000250400082504000825040008250400087B
:1001C0002504000800B583B002F038F8384B394AEE
:1001D0001360394A136039490CE00A684B6801F131
:1001E0000C04886803E011681960043304329842F3
:1001F000F9D82146324B9942EFD32E4B1A68314B36
:100200009A4204D12C4B1A682F4B9A4200D0FEE739
:10021000274B2E4A13602E4A13602E4B0AE01946D4
:1002200051F8082B5B6802E00020106004329A420B
:10023000FAD30B46284A9342F1D3244B1B6813B9D7
:10024000234B1B6803B1FEE702F054FB694601A88B
:1002500001F084FF214C224B1C1BA410002504E05C
:100260001E4B53F8253098470135AC42F8DC1D4C45
:100270001D4B1C1BA410002504E01A4B53F825301D
:1002800098470135AC42F8DC0099019802F054FB24
:100290000546164C164B1C1BA41004E0013C134BE6
:1002A00053F824309847002CF8DC284601F028FF4A
:1002B000BABADECA00000020740000203004000832
:1002C000480400087856341232547698780000209A
:1002D000940200204804000858040008580400084C
:1002E000580400085804000858040008580400087E
:1002F0005804000808B5FFF765FF00BF00BEFEE721
:100300001EF0040F0CBFEFF30880EFF30980714675
:10031000414A10472DE9F04182B004468846134B0C
:100320005E6B9F6B9D6A1B6B13F0020F0DD00F4B22
:10033000DB6A002B09DA4BF6AB6102F003F820B15F
:100340004FF00042094BDA620CE0094801F018FF57
:10035000CDF800803B4632462946204601F07AFF20
:1003600000BEFEE702B0BDE8F08100BF00ED00E096
:10037000B436000800BEFEE71EF0040F0CBFEFF31A
:100380000880EFF309807146244A10472DE9F041B7
:1003900082B004468846084B5E6B9F6B9D6A074897
:1003A00001F0EEFECDF800803B463246294620465D
:1003B00001F050FF00BEFEE700ED00E0C43600088B
:1003C0001EF0040F0CBFEFF30880EFF309807146B5
:1003D000134A10472DE9F04182B004468846084B85
:1003E0005E6B9F6B9D6A074801F0CAFECDF80080E6
:1003F0003B4632462946204601F02CFF00BEFEE770
:1004000000ED00E0D036000800BEFEE700BEFEE7CB
:1004100000BEFEE770470000150300088D030008CA
:10042000D503000800BEFEE708B500F047F808BD98
:100430003837000800000020780000203837000816
:10044000000000100000001078000020980200203A
:08045000000000100000001084
:1004600010B5044601F0B4F8064BA3FB0030800938
:1004700000F01AFB002221464FF0FF3000F0D2FAC4
:10048000002010BDD34D621008B50B4B1A6842F422
:1004900000721A601A6842F480621A601A6842F4A4
:1004A00080721A60032000F09FFA0020FFF7D8FF47
:1004B00002F0B2FA002008BD003C0240024A136874
:1004C00001331360704700BF10010020014B186812
:1004D000704700BF1001002010B582B00190FFF7F7
:1004E000F5FF0446FFF7F2FF001B019B9842F9D38A
:1004F00002B010BD10B50446504B5A6822F4403289
:100500005A60596842680A435A600268536823F483
:100510008073536002685368016943EA01235360A2
:100520000268536823F0407353600268516883681F
:100530000B4353600268936823F40063936002687E
:100540009168C3680B439360826A3D4B9A4214D012
:100550000268936823F07063936002689168836A0D
:100560000B4393600268936823F0405393600268E2
:100570009168C36A0B43936009E00268936823F0B3
:10058000706393600268936823F04053936022681D
:10059000936823F00203936022689368A16943EA99
:1005A00041039360236A03B3636A013B072B04D9B9
:1005B00040F20461234801F0D9FD2268536843F4F6
:1005C000006353602268536823F460435360636A96
:1005D000013B4FF4604292FAA2F2B2FA82F29340E7
:1005E00021684A6813434B6004E02268536823F48F
:1005F000006353602268D36A23F47003D3622168D6
:10060000CA6AE369013B42EA0353CB6222689368FA
:1006100023F40073936022689368216B43EA4123BB
:1006200093602268936823F48063936022689368E0
:10063000616943EA8123936010BD00BF002301403C
:100640000100000FB8330008002800F0DE8010B56C
:10065000044603686E4A93420CD002F580729342BE
:1006600008D002F58072934204D040F20D1169481F
:1006700001F07CFD63686BB1B3F5803F0AD0B3F540
:10068000003F07D0B3F5403F04D04FF48771614875
:1006900001F06CFDA3686BB1B3F1807F0AD0B3F1B8
:1006A000007F07D0B3F1407F04D040F20F115948CA
:1006B00001F05CFD2369012B04D94FF48871554882
:1006C00001F054FDA369012B04D940F211115148E6
:1006D00001F04CFDA36AA3B3B3F1807F31D0B3F135
:1006E000007F2ED0B3F1407F2BD0B3F1806F28D0A4
:1006F000B3F1A06F25D0B3F1C06F22D0B3F1E06F9A
:100700001FD0B3F1006F1CD0B3F1106F19D0B3F14B
:10071000206F16D0B3F1306F13D0B3F1406F10D00B
:10072000B3F1506F0DD0B3F1606F0AD0B3F1706FB9
:1007300007D0394A934204D04FF48971354801F00B
:1007400015FDE3683BB1B3F5006F04D040F213111F
:10075000304801F00BFDE369013B0F2B04D94FF446
:100760008A712C4801F002FD236B012B04D940F261
:100770001511284801F0FAFC6369022B04D94FF4E3
:100780008B71244801F0F2FC236A012B04D940F25A
:100790001711204801F0EAFCA26A1F4B9A420FD0C1
:1007A000E36A6BB1B3F1805F0AD0B3F1005F07D0A9
:1007B000B3F1405F04D040F21B11164801F0D6FCA3
:1007C000236C2BB9636484F83C30204601F02AFF87
:1007D000236C13F0100F13D1236C23F4885323F0F0
:1007E000020343F0020323642046FFF783FE002048
:1007F0006064236C23F0030343F00103236400E0EF
:100800000120002384F83C3010BD0120704700BF58
:1008100000200140B83300080100000F30B583B05C
:1008200005460C46002301930B68122B07D9684A32
:10083000934204D040F2FE41664801F097FC6368A1
:10084000013B0F2B04D940F2FF41624801F08EFCBE
:10085000A368072B04D94FF4A0615E4801F086FC21
:1008600095F83C30012B00F0AF80012385F83C3037
:100870002368092B17D92868C2689BB203EB43038E
:100880001E3B072101FA03F322EA0303C360296830
:10089000C868A268238803EB43031E3B02FA03F3F4
:1008A0000343CB6013E0286802699BB203EB430368
:1008B000072101FA03F322EA0303036129680869A7
:1008C000A368228802EB4202934003430B616368F2
:1008D000062B16D82868426B03EB8303053B1F21C8
:1008E00001FA03F322EA030343632968486B228871
:1008F000636803EB8303053B02FA03F303434B6393
:100900002EE00C2B16D82868026B03EB8303233BE5
:100910001F2101FA03F322EA030303632968086B2A
:100920002288636803EB8303233B02FA03F3034348
:100930000B6315E02868C26A03EB8303413B1F2168
:1009400001FA03F322EA0303C3622968C86A228812
:10095000636803EB8303413B02FA03F30343CB6277
:100960002A681D4B9A4207D12368122B04D11B4AD7
:10097000536843F4800353602A68174B9A421FD18F
:100980002368134A934201D0112B19D1134A53689B
:1009900043F40003536022680D4B9A4210D1104B70
:1009A0001B68104AA2FB03239B0C03EB83035A0032
:1009B000019202E0019B013B0193019B002BF9D1C5
:1009C000002085F83C0000E0022003B030BD00BFED
:1009D00012000010B833000800200140002301403D
:1009E0000C00002083DE1B4310B50446C31E042BFD
:1009F00003D9A421094801F0B9FB094AD36823F4BB
:100A0000E0631B041B0C240204F4E064234343F062
:100A1000BF6343F40033D36010BD00BFE833000868
:100A200000ED00E070B504460E4615460F2A03D9C6
:100A3000BC211A4801F09AFB0F2E03D9BD2117489B
:100A400001F094FB164BDA68C2F30222C2F10701EF
:100A5000042928BF0421131D062B01D9033A00E005
:100A60000022012303FA01F101393140914003FAD8
:100A700002F2013A2A400A43002C06DA04F00F047D
:100A80001201D2B2074B1A5570BD1201D2B204F155
:100A9000604404F5614484F8002370BDE833000825
:100AA00000ED00E014ED00E00138B0F1807F0AD2E3
:100AB000064B5860F021064A82F823100020986007
:100AC00007221A6070470120704700BF10E000E065
:100AD00000ED00E010B5041E04DA40F29111074861
:100AE00001F044FB630904F01F04012202FA04F43C
:100AF0006033034A42F8234010BD00BFE8330008CA
:100B000000E100E010B50446042805D020B140F211
:100B1000B311084801F02AFB042C05D1064A1368DA
:100B200043F00403136010BD034A136823F0040369
:100B3000136010BDE833000810E000E02DE9F04735
:100B400082B080460F46AB4B98421FD003F58063BE
:100B500098421BD003F58063984217D003F5806359
:100B6000984213D003F5806398420FD003F5806359
:100B700098420BD003F58063984207D003F5806359
:100B8000984203D0C5219C4801F0F0FA3B881BB97C
:100B9000C621994801F0EAFA7B68012B22D9112B72
:100BA00020D0022B1ED0122B1CD0944A934219D075
:100BB00002F58012934215D002F58012934211D0B3
:100BC000A2F5F81293420DD002F58012934209D09B
:100BD00002F58012934205D0032B03D0C72186482B
:100BE00001F0C4FABB68022B03D9C821824801F086
:100BF000BDFA00253EE10124AC403E682640B442E7
:100C000040F037817B68022B01D0122B69D13B6900
:100C1000002B56D0092B54D0002B52D0002B50D093
:100C2000002B4ED0002B4CD0012B4AD049D0022BA8
:100C300047D046D045D0032B43D0042B41D040D0E1
:100C40003FD0052B3DD03CD0092B3AD0062B38D0D5
:100C5000092B36D0072B34D033D032D0082B30D0EC
:100C60002FD02ED0092B2CD02BD00A2B29D028D036
:100C70000B2B26D00C2B24D023D00D2B21D00F2BC7
:100C80001FD0052B1DD00C2B1BD0062B19D0032BEE
:100C900017D0042B15D0052B13D0062B11D010D054
:100CA000072B0ED00DD00CD00BD0082B09D008D0BC
:100CB000092B06D00A2B04D003D0D9214E4801F0CD
:100CC00055FAEA08083258F8220005F0070399009F
:100CD0000F238B4020EA03003B698B40034348F815
:100CE0002230D8F800304FEA450A4FF0030909FADC
:100CF0000AF96FEA090903EA09027B6803F00303B2
:100D000003FA0AF31343C8F800307B685A1E012A1D
:100D100003D9112B01D0122B1BD1FB68032B03D954
:100D2000EC21354801F022FAD8F8083009EA03022C
:100D3000FB6803FA0AF31343C8F80830D8F8043004
:100D400023EA04047B68C3F30013AB401C43C8F8D8
:100D50000440D8F80C3009EA0309BB6803FA0AF327
:100D600049EA0303C8F80C307B6813F0805F00F099
:100D7000808000230193224B5A6C42F480425A64D3
:100D80005B6C03F480430193019BA9088A1C1D4BF3
:100D900053F8220005F003039B000F229A4020EA3B
:100DA0000200144A904519D002F58062904517D090
:100DB00002F58062904515D002F58062904513D00F
:100DC00002F58062904511D002F5806290450FD007
:100DD00002F58062904517D1062216E0002214E049
:100DE000012212E0022210E003220EE004220CE0B5
:100DF00005220AE0000002401C3400080000111027
:100E00000038024000380140082202FA03F303438D
:100E100002311B4A42F821301A4B1A68F34302EAA6
:100E20000301786810F4803F01D046EA0201154AB8
:100E30001160526803EA0201786810F4003F01D0A3
:100E400046EA02010F4A5160926803EA020178689B
:100E500010F4801F01D046EA02010A4A9160D2686C
:100E60001340796811F4001F01D046EA0203054AD5
:100E7000D36001350F2D7FF6BEAE02B0BDE8F0871E
:100E800000380140003C014070B5064615460C464E
:100E900021B940F2B111084801F068F9012D04D9D7
:100EA0004FF4D971044801F061F90DB1B46170BD1E
:100EB0002404B46170BD00BF1C34000830B583B099
:100EC000044603680F2B03D9F6219C4801F04EF924
:100ED000236813F0010F45D06368012B05D9052B5A
:100EE00003D0FB21954801F041F9954B9B6803F035
:100EF0000C03042B0AD0924B9B6803F00C03082BC5
:100F00000CD18F4B5B6813F4800F07D08C4B1B68A0
:100F100013F4003F26D0636823BBCCE12279894BD0
:100F20001A7063687BB1FFF7D1FA054605E0FFF759
:100F3000CDFA401B642800F2C081814B1B6813F47A
:100F4000003FF4D00EE0FFF7C1FA054605E0FFF7D9
:100F5000BDFA401B642800F2B281794B1B6813F480
:100F6000003FF4D1236813F0020F6AD0E368012B2D
:100F700004D940F22D11714801F0F8F823691F2BB4
:100F800004D94FF497716D4801F0F0F86C4B9B68F1
:100F900013F00C0F0AD06A4B9B6803F00C03082B6C
:100FA0001BD1674B5B6813F4800F16D1644B1B6831
:100FB00013F0020F03D0E368012B40F082816048F8
:100FC000036823F0F8012369F82292FAA2F2B2FA38
:100FD00082F293400B43036033E0E368FBB10122EC
:100FE000594B1A60FFF772FA054605E0FFF76EFAF3
:100FF000401B022800F26781514B1B6813F0020F5F
:10100000F4D04F48036823F0F8012369F82292FADC
:10101000A2F2B2FA82F293400B43036011E0002285
:10102000494B1A60FFF752FA054605E0FFF74EFA02
:10103000401B022800F24981414B1B6813F0020F4C
:10104000F4D1236813F0080F2ED06369012B04D963
:101050004FF4B771394801F089F8636993B10122FF
:101060003A4B1A60FFF732FA054605E0FFF72EFA11
:10107000401B022800F22B81314B5B6F13F0020FF3
:10108000F4D011E00022314B1A60FFF71FFA054639
:1010900005E0FFF71BFA401B022800F21A81284BDB
:1010A0005B6F13F0020FF4D1236813F0040F60D0CC
:1010B000A368012B06D9052B04D04FF4CC711F482F
:1010C00001F054F8002301931D4B1A6C42F080523A
:1010D0001A641B6C03F080530193019B1C4A136834
:1010E00043F480731360FFF7F1F9054605E0FFF75D
:1010F000EDF9401B022800F2EE80154B1B6813F43B
:10110000807FF4D0227A134B1A70A3688BB1FFF75B
:10111000DDF9054607E0FFF7D9F9401B41F28833B6
:10112000984200F2DA80064B1B6F13F0020FF2D0E8
:101130001FE0FFF7CBF9054616E000BF5C3400085E
:10114000003802400238024000004742800E474209
:101150000070004070380240FFF7B8F9401B41F2C0
:101160008833984200F2BB80634B1B6F13F0020F71
:10117000F2D1A369022B04D940F2CD115F4800F0EF
:10118000F5FFA369002B00F0AC805B4A926802F087
:101190000C02082A00F0A780022B79D1E3693BB149
:1011A000B3F5800F04D04FF4EB71544800F0DEFF2C
:1011B000236A3F2B04D940F2D711504800F0D6FFE4
:1011C000636A323BB3F5BF7F04D94FF4EC714B48EF
:1011D00000F0CCFFA36A022B0AD0042B08D0062B08
:1011E00006D0082B04D040F2D911444800F0BEFFCD
:1011F000E36A043B0B2B04D94FF4ED713F4800F038
:10120000B5FF00223E4B1A60FFF760F9054604E087
:10121000FFF75CF9401B022867D8374B1B6813F0B7
:10122000007FF5D1E169236A1943636A47F6C0720A
:1012300092FAA2F2B2FA82F293401943A36A5B08CF
:101240005A1E4FF4403393FAA3F3B3FA83F302FA2E
:1012500003F30B43E26A4FF0706191FAA1F1B1FA26
:1012600081F18A401343244A53600122244B1A60BF
:10127000FFF72CF9044604E0FFF728F9001B0228C9
:1012800035D81D4B1B6813F0007FF5D0002031E0EE
:1012900000221B4B1A60FFF719F9044604E0FFF720
:1012A00015F9001B022824D8134B1B6813F0007F8C
:1012B000F5D100201EE001201CE003201AE00320ED
:1012C00018E0012016E0032014E0032012E00320C0
:1012D00010E003200EE003200CE003200AE00320CE
:1012E00008E0002006E0012004E0032002E00320E3
:1012F00000E0032003B030BD003802405C34000839
:101300006000474270B504460D460368013B0E2B52
:1013100004D94FF40E71834800F028FF0F2D04D933
:1013200040F239217F4800F021FF7F4B1B6803F01A
:101330000F039D4208D9EBB27B4A1370136803F088
:101340000F039D4240F0DB80236813F0020F1DD095
:10135000A368A3B1802B12D0902B10D0A02B0ED05D
:10136000B02B0CD0C02B0AD0D02B08D0E02B06D04D
:10137000F02B04D04FF414716A4800F0F7FE6B496B
:101380008B6823F0F002A36813438B60236813F08B
:10139000010F64D06368032B04D940F257216148E0
:1013A00000F0E4FE6268012A05D1604B1B6813F46B
:1013B000003F0FD1A5E0931E012B05D85B4B1B68A6
:1013C00013F0007F06D19EE0584B1B6813F0020F0C
:1013D00000F09B8055498B6823F0030313438B6017
:1013E000FFF774F806466368012B0FD107E0FFF79B
:1013F0006DF8801B41F28833984200F288804B4B95
:101400009B6803F00C03042BF1D128E0022B0ED1D2
:1014100006E0FFF75BF8801B41F28833984278D8EA
:10142000424B9B6803F00C03082BF2D117E0032B0F
:1014300010D13E4B9B68FFF749F8801B41F288337F
:101440009842F6D967E0FFF741F8801B41F28833F4
:10145000984262D8354B9B6813F00C0FF3D1324B96
:101460001B6803F00F039D4207D2EAB22E4B1A709D
:101470001B6803F00F039D4251D1236813F0040F42
:1014800019D0E36883B1B3F5805F0DD0B3F5A05FE9
:101490000AD0B3F5C05F07D0B3F5E05F04D040F2E7
:1014A000B521204800F062FE20498B6823F4E05209
:1014B000E36813438B60236813F0080F1AD0236985
:1014C00083B1B3F5805F0DD0B3F5A05F0AD0B3F55B
:1014D000C05F07D0B3F5E05F04D04FF42F7111481F
:1014E00000F044FE114A936823F46043216943EA03
:1014F000C10393600020FEF7B3FF002070BD012000
:1015000070BD012070BD012070BD012070BD0320A1
:1015100070BD032070BD032070BD032070BD01208D
:1015200070BD00BF5C340008003C0240003802403F
:10153000244B9B6803F00C03042B3FD0082B01D0F5
:101540002148704710B41F4B586800F03F005B689B
:1015500013F4800F10D01D4BB3FBF0F0194B5A68F9
:1015600047F6C0710A4091FAA1F3B3FA83F322FA65
:1015700003F303FB00F310E0134BB3FBF0F0114B4C
:101580005A6847F6C07402EA040194FAA4F2B2FA67
:1015900082F221FA02F202FB00F30A4A506800F4D8
:1015A00040324FF4403090FAA0F0B0FA80F022FAC6
:1015B00000F001304000B3FBF0F001E00348704759
:1015C00010BC7047003802400024F40000127A007A
:1015D00008B5FFF7ADFF084B9B6803F0F002F0235E
:1015E00093FAA3F3B3FA83F322FA03F3034AD35C27
:1015F000D840034B186008BD003802404C34000846
:101600000C00002008B5FFF7E3FF084B9B6803F4CC
:10161000E0524FF4E05393FAA3F3B3FA83F322FAC0
:1016200003F3034AD35CD84008BD00BF0038024032
:101630004C34000808B5FFF7CBFF084B9B6803F458
:1016400060424FF4604393FAA3F3B3FA83F322FAB0
:1016500003F3034AD35CD84008BD00BF0038024002
:101660004C340008002800F0D98010B50446036807
:101670006B4A934210D0A2F5784293420CD002F507
:101680008062934208D002F57842934204D04FF42E
:101690008671644800F06AFD63683BB1B3F5827FF0
:1016A00004D040F20D115F4800F060FDA36853B113
:1016B000B3F5806F07D0B3F5004F04D04FF48771B6
:1016C000584800F053FDE368B3F5006F05D023B12F
:1016D00040F20F11534800F049FDA369B3F5007FB4
:1016E00008D03BB1B3F5802F04D04FF488714D483A
:1016F00000F03CFDE36993B1082B10D0102B0ED005
:10170000182B0CD0202B0AD0282B08D0302B06D039
:10171000382B04D040F21111424800F027FD236A13
:1017200033B1802B04D04FF489713E4800F01EFD88
:10173000636A33B1102B04D040F21311394800F022
:1017400015FD636A83B9236933B1022B04D04FF4CA
:101750008B71344800F00AFD6369012B04D940F213
:101760001711304800F002FDA36A3BB1B3F5005FEA
:1017700004D04FF48D712B4800F0F8FCA36AB3F548
:10178000005F0AD1E36A013B4FF6FE72934204D92F
:1017900040F21D11234800F0E9FC94F8513013F099
:1017A000FF0F05D1002384F85030204600F05EFF83
:1017B000022384F851302268136823F04003136039
:1017C00021686268A3681A43E3681A4323691A43CD
:1017D00063691A43A36903F400731343E269134373
:1017E000226A1343A26A1A430A602168638B03F0DA
:1017F0000402636A13434B60A36AB3F5005F02D12E
:101800002368E26A1A612268D36923F40063D36112
:1018100000206065012384F8513010BD012070471D
:10182000003001408C34000890F83930DBB2212BB5
:101830002AD18368B3F5805F0FD1036A02681B88E1
:10184000C3F30803536003691BB9036A02330362DD
:1018500009E0036A0133036205E00268036A591C68
:1018600001621B785360C38C013B9BB2C3846BB98C
:101870000268D36823F08003D3600268D36843F022
:101880004003D3600020704702207047002070475B
:101890002DE9F84304464268B14B9A4204D940F21C
:1018A000DD61B04800F062FCE3683BB1B3F5005F76
:1018B00004D040F2DE61AB4800F058FC236953B11C
:1018C000B3F5806F07D0B3F5C06F04D040F2DF618D
:1018D000A44800F04BFC63694FF6F372134200D149
:1018E00023B94FF4DC619F4800F040FC21680B698C
:1018F00023F44052E36813430B612068C36823F468
:10190000164222F00C02A168236919436369194346
:10191000E3690B431343C36021684B6923F44072AE
:10192000A36913434B61E369B3F5004F40F0BB80FB
:10193000276803F1804303F510439F4203D003F56A
:1019400080639F4257D1FFF775FE00EB800000EBEC
:10195000800065686D00B0FBF5F5834EA6FB05358C
:101960006D092D01FFF766FE00EB800000EB8000A3
:1019700063685B00B0FBF3F9FFF75CFE00EB8000EF
:1019800000EB800063685B00B0FBF3F3A6FB03236E
:101990005B094FF0640808FB1393DB003233A6FBAE
:1019A00003235B095B0003F4F8731D44FFF742FE59
:1019B00000EB800000EB800063685B00B0FBF3F994
:1019C000FFF738FE00EB800000EB800063685B00EF
:1019D000B0FBF3F3A6FB03235B0908FB13984FEA64
:1019E000C80808F13208A6FB0836C6F3421635448B
:1019F000BD60BDE8F883FFF705FE00EB800000EB5B
:101A0000800065686D00B0FBF5F5574EA6FB053507
:101A10006D092D01FFF7F6FD00EB800000EB800063
:101A200063685B00B0FBF3F9FFF7ECFD00EB8000AF
:101A300000EB800063685B00B0FBF3F3A6FB0323BD
:101A40005B094FF0640808FB1393DB003233A6FBFD
:101A500003235B095B0003F4F8731D44FFF7D2FD19
:101A600000EB800000EB800063685B00B0FBF3F9E3
:101A7000FFF7C8FD00EB800000EB800063685B00AF
:101A8000B0FBF3F3A6FB03235B0908FB13984FEAB3
:101A9000C80808F13208A6FB0836C6F342163544DA
:101AA000BD60BDE8F8832668304B9E4203D003F545
:101AB00080639E425CD1FFF7BDFD00EB800000EB30
:101AC00080006568AD00B0FBF5F5274FA7FB053535
:101AD0006D092D01FFF7AEFD00EB800000EB8000EB
:101AE00063689B00B0FBF3F8FFF7A4FD00EB8000F8
:101AF00000EB800063689B00B0FBF3F3A7FB0323BC
:101B00005B094FF0640909FB13831B013233A7FB08
:101B100003235B0903F0F0031D44FFF78BFD00EB8B
:101B2000800000EB800063689B00B0FBF3F8FFF7D8
:101B300081FD00EB800000EB800063689B00B0FB40
:101B4000F3F3A7FB03235B0909FB13831B01323368
:101B5000A7FB0323C3F343131D44B560BDE8F8831B
:101B6000A037A000BC3400081F85EB5100100140D5
:101B7000FFF748FD00EB800000EB80006568AD00DA
:101B8000B0FBF5F5254FA7FB05356D092D01FFF7D6
:101B900039FD00EB800000EB800063689B00B0FB28
:101BA000F3F8FFF72FFD00EB800000EB8000636887
:101BB0009B00B0FBF3F3A7FB03235B094FF0640921
:101BC00009FB13831B013233A7FB03235B0903F0DB
:101BD000F0031D44FFF716FD00EB800000EB8000D2
:101BE00063689B00B0FBF3F8FFF70CFD00EB80008F
:101BF00000EB800063689B00B0FBF3F3A7FB0323BB
:101C00005B0909FB13831B013233A7FB0323C3F3D7
:101C100043131D44B560BDE8F88300BF1F85EB5139
:101C20002DE9F04105460E4690461C46FEF74EFC57
:101C30000746B8F1000F28D057E0B4F1FF3F24D099
:101C400024B1FEF743FCC01B84421ED22A68D3682D
:101C500023F08003D3602A68D36823F02003D36085
:101C60002A68D36823F48073D3602A68536923F009
:101C700001035361202385F8393085F83A30002379
:101C800085F838300320BDE8F0812B681B6836EA00
:101C90000303D2D10020BDE8F081B4F1FF3F24D08E
:101CA00024B1FEF713FCC01B84421ED22A68D368FD
:101CB00023F08003D3602A68D36823F02003D36025
:101CC0002A68D36823F48073D3602A68536923F0A9
:101CD00001035361202385F8393085F83A30002319
:101CE00085F838300320BDE8F0812B681B6836EAA0
:101CF0000303D2D00020BDE8F08100BF002800F02F
:101D0000868010B5044683691BB30368414A934239
:101D10000FD0A2F54C4293420BD002F58062934261
:101D200007D002F54C42934203D0FB213A4800F021
:101D30001DFAA36953B3B3F5807F27D0B3F5007FB5
:101D400024D0B3F5407F21D0FC21334800F00EFAB7
:101D50001CE003682F4A934218D0A2F54C429342EC
:101D600014D002F58062934210D002F58062934253
:101D70000CD002F58062934208D002F544429342AF
:101D800004D04FF48071244800F0F0F9A3683BB10F
:101D9000B3F5805F04D04FF481711F4800F0E6F97D
:101DA000E3693BB1B3F5004F04D040F203111A4888
:101DB00000F0DCF994F8393013F0FF0F05D100235F
:101DC00084F83830204600F09BFC242384F8393016
:101DD0002268D36823F40053D3602046FFF758FDF0
:101DE0002268136923F4904313612268536923F036
:101DF0002A0353612268D36843F40053D360002060
:101E0000E063202384F8393084F83A3010BD012093
:101E1000704700BF00100140BC34000870B51E467A
:101E200090F83930DBB2202B49D104460D46002909
:101E300047D0002A47D090F83830012B45D00123F5
:101E400080F838300023C363212380F8393082843E
:101E5000C28422E0013BE384A368B3F5805F11D123
:101E60003346002280212046FFF7DAFE78BB226845
:101E70002B88C3F30803536023690BB902350CE0C8
:101E800001350AE03346002280212046FFF7C8FED4
:101E9000F8B923682A785A600135E38C002BD9D130
:101EA0003346002240212046FFF7BAFE034690B990
:101EB000202284F83920002284F838200CE0022304
:101EC0000AE0012308E0012306E0022304E00323E3
:101ED00002E0032300E00323184670BD90F83A3077
:101EE000DBB2202B23D121B32AB390F83830012B59
:101EF00023D0012380F8383081628285C285002397
:101F0000C363222280F83A200168CA6842F48072D2
:101F1000CA6001684A6942F001024A6180F83830BB
:101F20000168CA6842F02002CA6018467047022061
:101F3000704701207047012070470220704700BFA2
:101F4000704700BF08B50168CB6823F04003CB6041
:101F5000202380F83930FFF7F3FF002008BD00BFD1
:101F600008B590F83A30DBB2222B43D18368B3F541
:101F7000805F13D1826A036943B903685B68C3F366
:101F800008031380836A0233836218E003685B6886
:101F9000DBB21380836A0133836210E0036933B9D3
:101FA000836A5A1C8262026852681A7007E0826A69
:101FB000531C836203685B6803F07F031370C38D57
:101FC000013B9BB2C385BBB90268D36823F02003F1
:101FD000D3600268D36823F48073D36002685369C6
:101FE00023F001035361202380F83A3000F0FCFC19
:101FF000002008BD022008BD002008BD704700BFBA
:1020000010B584B0044603681968DA6811F0010F4E
:102010000DD002F4807252B1002200921A68009230
:102020005A680092009AC26B42F00102C2631968BA
:102030005A6902F0010211F0020F0BD052B10022D6
:1020400001921A6801925A680192019AE26B42F079
:102050000402E26319685A6902F0010211F0040FE8
:102060000BD052B1002202921A6802925A68029270
:10207000029AE26B42F00202E26319685A6902F0C6
:10208000010211F0080F0BD052B1002203921A681E
:1020900003925A680392039AE26B42F00802E263E9
:1020A0001A68DB6803F0200312F0200F03D013B18D
:1020B0002046FFF755FF23681A68DB6803F08003AA
:1020C00012F0800F03D013B12046FFF7ADFB236859
:1020D0001A68DB6803F0400312F0400F03D013B11D
:1020E0002046FFF72FFFE36B3BB1202384F8393004
:1020F00084F83A302046FFF781FF04B010BD00BFDE
:10210000FEE700BF08B5034800F052F80120FFF7D2
:10211000F7FF00BFEC34000808B50D4B1B6813B97E
:102120000C4A0B4B1A600A4B1A68C31C23F00303BA
:10213000134409498B4206D900F07EFC0C2303604E
:102140004FF0FF3008BD02490B60104608BD00BFCC
:102150007C0000209802002000FC01200123036085
:10216000014B0B60704700BF0400002008B50A4611
:102170000146024800F004F8FFF7C4FF40350008AC
:102180000FB400B583B004AB53F8042B0193802146
:10219000064800F0AFFC002803DD0146034800F0CC
:1021A00049F803B05DF804EB04B0704784000020E8
:1021B00010B5044600F06AFC0146204600F03AF8EB
:1021C0000121024800F036F810BD00BF303600088B
:1021D0002DE9F04385B004460F46435613BB042552
:1021E00028462146ABBE04461FE03546102E28BFC8
:1021F0001025002306E014F9011B04AA1A4402F872
:10220000101C0133AB42F6D304AA1344002203F896
:10221000102CE9464FF0040840464946ABBE8046C4
:10222000761B00E00E46002EDFD1384605B0BDE833
:10223000F08300BF08B5FFF7CBFF08BD08B500F07D
:1022400091F8024B024A9A6008BD00BF00ED00E021
:1022500000000008F8B504460D4617461E462648FD
:10226000FFF78EFF21682548FFF78AFF6168244841
:10227000FFF786FFA1682348FFF782FFE168224845
:10228000FFF77EFF21692148FFF77AFF6169204847
:10229000FFF776FFA1691F48FFF772FFE1691E484B
:1022A000FFF76EFF1D48FFF76BFF29461C48FFF73D
:1022B00067FF1C4CE16A1C48FFF762FF216B1B485B
:1022C000FFF75EFFE16B1A48FFF75AFF15F0800F2A
:1022D00003D039461748FFF753FF15F4004F03D0DA
:1022E00031461548FFF74CFF1448FFF749FF0699A0
:1022F0001348FFF745FFF8BD98350008A8350008DA
:10230000B8350008C8350008D8350008E835000899
:10231000F835000808360008183600082836000886
:102320003436000800ED00E044360008543600085A
:1023300064360008743600088436000894360008B5
:102340009C36000883691A888A4207D10268033ADA
:10235000012A05D8023383610120704700207047AD
:10236000002070470C4B1A6842F001021A600021ED
:1023700099601A6822F0847222F480321A60074A47
:102380005A601A6822F480221A60D9604FF0006205
:10239000034B9A60704700BF0038024010300024A1
:1023A00000ED00E0224B9B6803F00C03042B07D0E8
:1023B000082B09D0002B2DD11E4A1F4B1A602CE090
:1023C0001E4A1D4B1A6028E0194B5A685B6803F0DF
:1023D0003F0312F4800F09D0184AB2FBF3F2144BFA
:1023E0005B68C3F3881303FB02F208E0114AB2FBF7
:1023F000F3F30F4A5168C1F3881101FB03F20C4B50
:102400005B68C3F3014301335B00B2FBF3F30A4A99
:10241000136002E0074A084B1A60054B9B68C3F340
:102420000313074AD15C044A1368CB40136070471A
:10243000003802400024F4000C00002000127A0052
:10244000E03600082DE9F0438BB000240194464BA0
:102450001A6B42F004021A631A6B02F00402019232
:10246000019A02941A6B42F080021A631A6B02F00E
:1024700080020292029A03941A6B42F001021A63DC
:102480001A6B02F001020392039A04941A6B42F051
:1024900002021A631B6B03F002030493049B334F85
:1024A000012208213846FEF7EFFC314E0122114689
:1024B0003046FEF7E9FC012202213046FEF7E4FC3B
:1024C000012208213046FEF7DFFC22464FF440414E
:1024D0003846FEF7D9FCDFF89C9022460121484699
:1024E000FEF7D2FC224648F204013046FEF7CCFC4F
:1024F000DFF88480224641F2A7014046FEF7C4FC83
:102500004FF440430593012506950794089405A9C7
:102510003846FEF713FB059506950794089405A920
:102520004846FEF70BFB082305930695079408948D
:1025300005A93846FEF702FB48F20F0305930695FE
:102540000794089405A93046FEF7F8FA41F2A7036C
:10255000059306950794089405A94046FEF7EEFA00
:102560000BB0BDE8F08300BF003802400008024015
:1025700000000240001C02400004024030B595B04B
:1025800000240094244B1A6C42F080521A641B6C95
:1025900003F080530093009B0194204B1A6842F48F
:1025A00040421A601B6803F440430193019B0225DB
:1025B000079501230A9310230B930D950E9408237E
:1025C0000F93A8231093119507231293139507A82F
:1025D000FEF774FC0F230293039504944FF4A05369
:1025E00005934FF480530693052102A8FEF78AFE57
:1025F000FEF7EEFF0A4BA3FB00308009FEF754FA0A
:102600000420FEF77FFA224621464FF0FF30FEF706
:1026100009FA15B030BD00BF00380240007000401C
:10262000D34D621002680F4B9A421AD100B587B0A1
:102630000021009103F58C335A6C42F480725A6485
:102640005B6C03F480730093009B072301930323C7
:102650000293039101A90448FEF770FA07B05DF8F0
:1026600004FB7047002001400008024000B589B01B
:1026700003681E4A934219D1002101911C4B5A6CE8
:1026800042F480525A645B6C03F480530193019BC3
:10269000E023039302230493059103230693052368
:1026A000079303A91348FEF749FA1CE0124A934224
:1026B00019D1002102910E4B1A6C42F400421A64A7
:1026C0001B6C03F400430293029B4FF4E05303930B
:1026D000022304930591032306930623079303A97A
:1026E0000648FEF72BFA09B05DF804FB0030014004
:1026F0000038024000000240003C00400008024058
:10270000F0B589B00368244A93421BD1002301939A
:10271000224B5A6C42F010025A645B6C03F01003B7
:102720000193019B4FF4C06303930223049301239D
:102730000593032306930723079303A91848FEF77D
:10274000FDF927E0174A934224D100230293134B4B
:102750001A6C42F480221A641B6C03F480230293E7
:10276000029B202303930227049701260596032545
:1027700006950724079403A90B48FEF7DFF94FF4E9
:1027800080630393049705960695079403A9074869
:10279000FEF7D4F909B0F0BD001001400038024046
:1027A00000000240004800400008024000040240CF
:1027B000FEE700BF00B585B01248134B03604FF42D
:1027C0008033436000238360036183610362C362DB
:1027D000C3600122C26103634261FDF735FF08B1A6
:1027E000FFF7E6FF0A2300930123019300230293DE
:1027F00069460448FEF712F808B1FFF7D9FF05B0A3
:102800005DF804FBB00100200020014008B50D4830
:102810000D4B03604FF48273436000238360C360F9
:10282000036143614FF4007282613022C26103622E
:10283000436283620A23C362FEF714FF08B1FFF705
:10284000B7FF08BD380200200030014008B50D4830
:102850000D4B03604FF48273436000238360C360B9
:10286000036143614FF400728261C361036243629A
:1028700083620A23C362FEF7F5FE08B1FFF798FFF3
:1028800008BD00BF58010020003C004008B50A48C0
:102890000A4B03604FF4E133436000238360C3605D
:1028A00003610C2242618361C361FFF727FA08B11B
:1028B000FFF77EFF08BD00BFF801002000100140B7
:1028C00008B50A480A4B03604FF4E1334360002324
:1028D0008360C36003610C2242618361C361FFF7BF
:1028E0000DFA08B1FFF764FF08BD00BF1801002012
:1028F0000048004008B5FDF7C7FDFFF73FFEFFF7B2
:1029000051FDFFF79FFDFFF755FFFFF77FFFFFF733
:102910009DFFFFF7BBFFFFF7D3FF08BD10B50446CF
:1029200000F0B4F84FF47A7382B221460148FFF701
:1029300075FA10BD1801002010B59AB001220821C7
:102940002248FEF7A1FA224C012211462046FEF74A
:102950009BFA012202212046FEF796FA0122082165
:102960002046FEF791FA012280211A48FEF78CFAE0
:1029700001224FF400412046FEF786FA4FF47A70A8
:10298000FDF7AAFD0122144B93F900101348FFF73D
:10299000A5FA134B1A68134901A800F053F801A8CF
:1029A000FFF7BCFF0B4C012220212046FEF76CFAFA
:1029B0004FF4FA70FDF790FD002220212046FEF72B
:1029C00063FA4FF47A70FDF787FDE2E700080240F2
:1029D0000000024000040240900200201801002084
:1029E00004010020F036000810B5084C94F90000EE
:1029F000FFF794FF064A136801331360012294F92C
:102A000000100448FFF76AFA10BD00BF90020020D2
:102A10000401002018010020704700BF10B52720D6
:102A2000FEF758F8034C2046FFF7DEFF2046FFF77D
:102A3000E7FA10BD18010020014B1868704700BF6D
:102A4000700000200EB400B59CB04FF402711DABB5
:102A5000ADF81410029006906FF000410A480491FE
:102A600007914FF6FF7153F8042BADF8161000686C
:102A7000019302A900F0A6F8029B00221A701CB074
:102A80005DF804EB03B0704770000020034613F8B4
:102A9000012B002AFBD1181A0138704730B5141EDB
:102AA00005469BB0184604DA8B232B604FF0FF30AD
:102AB0001DE04FF40273ADF80C3014BF04F1FF3386
:102AC0002346029305934FF6FF7300910491ADF8EE
:102AD0000E3002461E9B6946284600F073F8431CE0
:102AE000BCBF8B232B6014B1009B00221A701BB05B
:102AF00030BD000007B5009313460A46014603485F
:102B00000068FFF7CBFF03B05DF804FB7000002006
:102B10002DE9F0478E689E4282460C4691469846C3
:102B20003ED88A8912F4906F3AD0256809696F1AE5
:102B30006569022305EB450595FBF3F57B1C4344D2
:102B40009D4238BF1D4653050FD5294600F094FB22
:102B5000064698B13A46216900F01AFBA38923F48E
:102B6000906343F08003A38113E02A4600F0E2FB68
:102B7000064670B92169504600F030FB0C23CAF8B4
:102B80000030A38943F04003A3814FF0FF30BDE83C
:102B9000F087266165613E44ED1B2660A5604646D0
:102BA000464528BF464632464946206800F0FBFAB3
:102BB000A3689B1BA36023681E4426600020BDE819
:102BC000F08700002DE9F04F9DB0804603938B897C
:102BD0001C060D4616460DD50B695BB9402100F069
:102BE0004BFB2860286118B90C23C8F80030CDE0F1
:102BF00040236B610023099320238DF82930DFF8EF
:102C00009CB130238DF82A3037463C4614F8013BFE
:102C10001BB9B7EB060910D003E0252BF9D02746E6
:102C2000F3E74B46324629464046FFF771FF013035
:102C300000F0A780099B4B4409933B78002B00F0E0
:102C4000A08000234FF0FF32049307930592069370
:102C50008DF853301A930126052221784E4800F052
:102C600047FA671C049B38B14B4A801A06FA00F0F9
:102C7000184304903C46EFE7D90644BF20228DF864
:102C800053201A0744BF2B228DF8532022782A2A7A
:102C900003D0079A00210A200BE0039A111D126845
:102CA0000391002A10DA524243F002000792049086
:102CB0000BE0274601343B78303B092B03D800FB5F
:102CC00002320121F5E701B107923B782E2B1ED18C
:102CD0007B782A2B0AD1039B1A1D1B680392002BB9
:102CE000B8BF4FF0FF330237059310E00023059380
:102CF000781C19460A24074601303A78303A092AE6
:102D000003D804FB01210123F5E703B10591032258
:102D10003978224800F0ECF940B14023CBEB0000B9
:102D200003FA00F0049B18430490013739781C48DB
:102D30008DF8281006227E1C00F0DAF988B1194BB4
:102D400033B9039B073323F007030833039314E0DD
:102D500003AB00932A46144B04A94046AFF300800E
:102D600007E003AB00932A460F4B04A9404600F04E
:102D700093F8B0F1FF3F824603D0099B5344099377
:102D800042E7AB895B0601D4099801E04FF0FF30C0
:102D90001DB0BDE8F08F00BF0237000808370008FB
:102DA0000C37000800000000112B00082DE9F04747
:102DB00091461F460A698B68DDF820809342B8BFB0
:102DC0001346C9F8003091F8432006460C4612B16C
:102DD0000133C9F800302368990642BFD9F80030A2
:102DE0000233C9F80030256815F0060510D104F14A
:102DF000190A07E00123524639463046C0470130E0
:102E00001AD00135E368D9F800209B1A9D42F1DB06
:102E100094F843302268003318BF012392060FD57F
:102E2000E1185A1C302081F84300224494F84510E0
:102E300082F84310023303E04FF0FF30BDE8F08723
:102E400004F1430239463046C0470130F4D02268CD
:102E5000D9F80050E36802F00602042A08BF5D1B9F
:102E60002269A3680CBF25EAE57500259342C4BF1B
:102E70009B1AED184FF000091A344D4509D0012373
:102E8000224639463046C0470130D5D009F1010904
:102E9000F3E70020BDE8F0872DE9F04317460A7EEE
:102EA00085B06E2A984606460C460C9B01F1430EEF
:102EB00000F0AE8011D8632A22D009D8002A00F091
:102EC000BB80582A40F0CA8081F84520834955E0EC
:102ED000642A1ED0692A1CD0C0E0732A00F0B0809A
:102EE00009D86F2A2ED0702A40F0B8800A6842F0C4
:102EF00020020A603EE0752A24D0782A3AD0ADE05C
:102F00001A6801F14205111D1960136884F84230F6
:102F1000A8E021681A6811F0800F02D0111D196015
:102F200008E011F0400F02F10401196002D0B2F97B
:102F3000003000E01368002B3CDA2D225B4284F85D
:102F4000432037E021681A6811F0800F02D0111D6C
:102F5000196007E011F0400F02F10401196001D07F
:102F6000138800E01368227E5C496F2A14BF0A228E
:102F700008221BE078225A4984F845202268186804
:102F800012F0800F00F104051D6003D1550601D534
:102F9000038800E00368D00744BF42F020022260AB
:102FA0001BB9226822F0200222601022002084F83F
:102FB000430001E049490A226568A560002D08DB4D
:102FC000206820F0040020602BB9002D7DD17546CB
:102FD0000CE0002B79D07546B3FBF2F002FB103306
:102FE000CB5C05F8013D03460028F5D1082A0BD13A
:102FF0002368DA0708D5236962689A42DEBF302366
:1030000005F8013C05F1FF35C5EB0E0323612EE009
:1030100008681A68496910F0800F03D0101D186005
:10302000136808E010F0400F02F104001860136804
:1030300001D0198000E0196000232361754616E075
:103040001A68111D1960156862680021284600F091
:103050004FF808B1401B6060636804E004F142056A
:1030600084F8422001232361002384F84330CDF803
:1030700000803B4603AA21463046FFF797FE013009
:1030800002D14FF0FF3026E023692A463946304608
:10309000C0470130F5D023689B0710D5002504F107
:1030A000190907E001234A4639463046C047013036
:1030B000E7D00135E368039A9B1A9D42F2DBE06892
:1030C000039B9842B8BF184605E00B7884F842305D
:1030D00004F142058AE705B0BDE8F0831337000824
:1030E000243700080000000000000000000000007D
:1030F00001F0FF01102A2BDB10F0070F08D010F8A9
:10310000013B013A8B422DD010F0070F42B3F6D1AC
:10311000F0B441EA012141EA014122F007047FF0C5
:1031200000070023F0E80256083C85EA010586EA1C
:10313000010685FA47F5A3FA87F586FA47F6A5FA58
:1031400087F68EB9EED1F0BC01F0FF0102F0070264
:1031500032B110F8013B013A83EA010313B1F8D10F
:103160000020704701387047002D06BF35460338F0
:10317000073815F0010F07D1013015F4807F02BF29
:10318000013015F4C03F0130F0BC0138704700BF7A
:1031900010B5431E0A44914204D011F8014B03F8C4
:1031A000014FF8E710BD884210B501EB020301D8CA
:1031B000421E0BE09842FBD28118D21AD34204D0AF
:1031C00013F8014D01F8014DF8E710BD994204D004
:1031D00011F8014B02F8014FF8E710BD38B505466C
:1031E000002946D051F8043C0C1F002BB8BFE4184E
:1031F00000F0D6F81F4A1368114613B963601460D3
:1032000032E0A3420ED92268A018834204BF186896
:103210005B68636004BF121822600C6024E0A24265
:1032200003D813465A68002AF9D118681918A14220
:103230000BD12168014458188242196014D11068DA
:1032400052685A60014419600EE002D90C232B60C9
:103250000AE021686018824204BF10685268626008
:1032600004BF091821605C602846BDE8384000F0C2
:1032700098B838BD0C01002070B5CD1C25F00305B1
:1032800008350C2D38BF0C25002D064601DBA94260
:1032900002D90C23336046E000F082F8234B1C680F
:1032A0001A462146A1B10B685B1B0ED40B2B03D928
:1032B0000B60CC18CD501EE08C420DBF63684B688C
:1032C0006360136018BF0C4615E00C464968E9E7D7
:1032D000174C23681BB9304600F052F8206029468D
:1032E000304600F04DF8431C18D0C41C24F00304F1
:1032F000A0420DD12560304600F053F804F10B00D8
:10330000231D20F00700C31A0ED05A42E25070BDB0
:10331000211A304600F034F80130EBD10C23336031
:10332000304600F03EF8002070BD00BF0C010020C8
:1033300008010020F8B5074615460E4621B911468A
:10334000BDE8F840FFF798BF1AB9FFF747FF2846D6
:10335000F8BD00F027F885420ED929463846FFF718
:103360008BFF044650B131462A46FFF711FF314624
:103370003846FFF733FF01E03046F8BD2046F8BD80
:1033800038B5064C0023054608462360FEF7C4FE08
:10339000431C02D1236803B12B6038BD1401002007
:1033A0007047704751F8040C0028BEBF091851F847
:1033B000043CC018043870472E2E2F73797374653F
:1033C0006D2F7372632F73746D333266342D6861A1
:1033D0006C2F73746D3332663478785F68616C5F1C
:1033E0006164632E630000002E2E2F737973746561
:1033F0006D2F7372632F73746D333266342D686171
:103400006C2F73746D3332663478785F68616C5FEB
:10341000636F727465782E63000000002E2E2F7388
:10342000797374656D2F7372632F73746D333266A5
:10343000342D68616C2F73746D3332663478785F25
:1034400068616C5F6770696F2E63000000000000A8
:103450000102030401020304060708092E2E2F733C
:10346000797374656D2F7372632F73746D33326665
:10347000342D68616C2F73746D3332663478785FE5
:1034800068616C5F7263632E630000002E2E2F73E1
:10349000797374656D2F7372632F73746D33326635
:1034A000342D68616C2F73746D3332663478785FB5
:1034B00068616C5F7370692E630000002E2E2F739D
:1034C000797374656D2F7372632F73746D33326605
:1034D000342D68616C2F73746D3332663478785F85
:1034E00068616C5F756172742E63000061626F7257
:1034F0007428292C2065786974696E672E2E2E0039
:103500002C2066756E6374696F6E3A2000000000AF
:10351000617373657274696F6E2022257322206651
:1035200061696C65643A2066696C652022257322A6
:103530002C206C696E65202564257325730A0000B4
:103540006173736572745F706172616D28292066A2
:1035500061696C65643A2066696C65202225732276
:103560002C206C696E652025640A00006D61696E0F
:1035700028617267633D25642C20617267763D5B2C
:10358000000000002C200000222573220000000013
:103590005D293B0A00000000537461636B20667272
:1035A000616D653A0A000000205230203D20202540
:1035B0003038580A00000000205231203D202025DC
:1035C0003038580A00000000205232203D202025CB
:1035D0003038580A00000000205233203D202025BA
:1035E0003038580A0000000020523132203D20259A
:1035F0003038580A00000000204C52203D20202581
:103600003038580A00000000205043203D2020257B
:103610003038580A0000000020505352203D202529
:103620003038580A000000004653522F4641523AA3
:103630000A0000002043465352203D202025303808
:10364000580A00002048465352203D20202530389B
:10365000580A00002044465352203D20202530388F
:10366000580A00002041465352203D202025303882
:10367000580A0000204D4D464152203D202530384B
:10368000580A00002042464152203D202025303873
:10369000580A00004D6973630A000000204C522F45
:1036A0004558435F52455455524E3D2025303858B9
:1036B0000A0000005B486172644661756C745D0AC3
:1036C000000000005B4275734661756C745D0A0012
:1036D0005B55736167654661756C745D0A00000037
:1036E00000000000000000000102030406070809B2
:1036F0005278206279746573203D2025640A0000A9
:103700004300232D302B2000686C4C006566674514
:103710004647003031323334353637383941424349
:1037200044454600303132333435363738396162FA
:05373000636465660002
:103738007856341280000020000000000024F400B5
:103748000000000000000000000000000000000071
:103758000000000000000000000000000000000061
:103768000037000800000000000000000000000012
:103778000000000000000000000000000000000041
:103788000000000000000000000000000000000031
:103798000000000000000000000000000000000021
:0837A800100000203254769855
:04000005080001C529
:00000001FF
